:100000000C94E2050C94FF050C94FF050C94CE2E85
:100010000C94FF050C94FF050C94FF050C94FF0550
:100020000C94FF050C94FF050C94FE150C941F1AFC
:100030000C94F9250C94FF050C94FF050C94FF0516
:100040000C94FF050C94FF050C94FF050C94FF0520
:100050000C94FF050C94D7160C94FF050C94FF0527
:100060000C94FF050C94FF050C94FF050C94FF0500
:100070000C94FF050C94FF050C94FF050C94FF05F0
:100080000C94FF050C94FF050C94FF050C94FF05E0
:100090000C94FF050C94FF050C94FF050C94FF05D0
:1000A0000C94FF050C94FF050C94FF0520202020E4
:1000B0006162636465666768696A6B6C6D6E6F70B8
:1000C0007172737475767778797A31323334353664
:1000D00037383930524542545F2D3D5B5D5C233BE0
:1000E00027602C2E2F2020202B0014001A0008003F
:1000F00015001700E00004001600070009000A00C0
:10010000E1001D001B0006001900050000000000B2
:100110000000E30021522C002A00130012000C0002
:1001200018001C00340033000F000E000D000B00FF
:1001300029003800370036001000110000000000D0
:100140000000E600225228002B001E001F002000A5
:1001500021002200E000000000000000000000007C
:10016000E1000000000000000000000000000000AE
:100170000000E30001002C002A00270026002500D3
:1001800024002300000000004F00520051005000E6
:10019000000000000000000000000000000000005F
:1001A0000000E600235228002B001E021F0220023E
:1001B00021022202E0000000000000000000000018
:1001C000E10000000000000000000000000000004E
:1001D0000000E30023522C002A00270226022502F9
:1001E000240223023500310030002F002E002D00A4
:1001F0003502310230022F022E022D0200000000D3
:100200000000E60001002800007C00000000000063
:10021000000000002078237825782778000000006F
:10022000217824782678287800000000000000005B
:100230000000E30001002C000000000000000000AE
:1002400000000000000000000000000000000000AE
:10025000000000000000000000000000000000009E
:100260000000E6000100280000DA0281FFD9F1DB7E
:1002700020A4A62EAF00A0C0D30000A1C8D30000C8
:10028000AED580A81F408D1420001E0F0500047FEE
:100290003F1F643214643214783C1E1E140A055544
:1002A0006E6465660041646A7573740052616973B7
:1002B00065004C6F7765720044656661756C74000B
:1002C0004C617965723A20003A002C206B0078006E
:1002D000808182838485868788898A8B8C8D8E8FA6
:1002E0009091929394A0A1A2A3A4A5A6A7A8A9AA1D
:1002F000ABACADAEAFB0B1B2B3B4C0C1C2C3C4C594
:10030000C6C7C8C9CACBCCCDCECFD0D1D2D3D400EA
:1003100000010101010101010101020202020202C8
:10032000020202030303030303030304040404049B
:100330000404050505050506060606060707070762
:100340000708080808090909090A0A0A0B0B0B0C17
:100350000C0C0D0D0D0E0E0E0F0F0F1010111111B4
:100360001212131314141515161617171818191935
:100370001A1A1B1B1C1D1D1E1E1F2020212222239A
:100380002424252626272829292A2B2C2D2D2E2FDB
:1003900030313232333435363738393A3B3C3D3EF2
:1003A0003F404142434445464748494A4C4D4E4FE1
:1003B00050515354555658595A5B5D5E5F616264A3
:1003C000656668696B6C6D6F7072737577787A7B30
:1003D0007D7E8082838587888A8C8E8F9193959687
:1003E000989A9C9EA0A2A3A5A7A9ABADAFB1B3B5A7
:1003F000B7BABCBEC0C2C4C6C9CBCDCFD1D4D6D883
:10040000DBDDDFE2E4E7E9EBEEF0F3F5F8FAFDFF20
:10041000FFAA7F55402223252628292A2C2D2F305C
:1004200032333536383A3B3D3E4042434547494AF0
:100430004C4E5051535557595A5C5E606264666821
:10044000696B6D6F71737577797B7D7F818385872C
:10045000898A8C8E90929496989A9C9E9FA1A3A52F
:10046000A7A8AAACAEAFB1B3B4B6B8B9BBBCBEBF57
:10047000C1C2C3C5C6C7C9CACBCCCDCED0D1D2D2DA
:10048000D3D4D5D6D7D7D8D9D9DADADBDBDBDCDCE5
:10049000DCDCDCDDDDDDDDDCDCDCDCDCDBDBDBDA9D
:1004A000DAD9D9D8D7D7D6D5D4D3D2D2D1D0CECD08
:1004B000CCCBCAC9C7C6C5C3C2C1BFBEBCBBB9B815
:1004C000B6B4B3B1AFAEACAAA8A7A5A3A19F9E9C9A
:1004D0009A98969492908E8C8A89878583817F7D65
:1004E0007B79777573716F6D6B6968666462605E46
:1004F0005C5A5957555351504E4C4A49474543420F
:10050000403E3D3B3A3836353332302F2D2C2A29A8
:10051000282625232200AF00AE05010902A101858E
:10052000020901A1000509190129081500250195F5
:1005300008750181020501093009311581257F9572
:10054000027508810609381581257F950175088196
:1005500006050C0A38021581257F9501750881066C
:10056000C0C005010980A101850319012AB7001542
:100570000126B700950175108100C0050C0901A185
:1005800001850419012AA002150126A00295017512
:10059000108100C005010906A1018506050719E0C3
:1005A00029E7150025019508750181020507190045
:1005B00029EF1500250195F0750181020508190143
:1005C0002905950575019102950175039101C005F5
:1005D000010906A101050719E029E7150025019584
:1005E0000875018102950175088101050719002927
:1005F000FF150026FF009506750881000508190102
:1006000029051500250195057501910295017503D0
:100610009101C009023B00020100A0FA0904000098
:100620000103010100092111010001224400070515
:1006300081030800010904010001030000000921F1
:100640001101000122B600070582032000011201FA
:1006500000020000000853460100010001020001F1
:100660000C0343006F0072006E0065000000100371
:1006700066006F006F007300740061006E00000080
:10068000040309040000000000003E5B4F5B3E00D5
:100690003E6B4F6B3E001C3E7C3E1C00183C7E3C7B
:1006A00018001C577D571C001C5E7F5E1C00001844
:1006B0003C180000FFE7C3E7FF0000182418000003
:1006C000FFE7DBE7FF0030483A060E0026297929CC
:1006D0002600407F05050700407F05253F005A3C66
:1006E000E73C5A007F3E1C1C0800081C1C3E7F0093
:1006F00014227F2214005F5F005F5F0006097F0104
:100700007F00006689956A0060606060600094A266
:10071000FFA2940008047E04080010207E20100030
:1007200008082A1C0800081C2A0808001E101010BF
:1007300010000C1E0C1E0C0030383E383000060E27
:100740003E0E060000000000000000005F000000F8
:10075000000700070000147F147F1400242A7F2A5A
:100760001200231308646200364956205000000826
:1007700007030000001C224100000041221C000071
:100780002A1C7F1C2A0008083E08080000807030E0
:100790000000080808080800000060600000201041
:1007A000080402003E5149453E0000427F400000DF
:1007B0007249494946002141494D33001814127FBE
:1007C00010002745454539003C4A4949310041213F
:1007D00011090700364949493600464949291E0092
:1007E0000000140000000040340000000008142243
:1007F00041001414141414000041221408000201D2
:10080000590906003E415D594E007C1211127C00D0
:100810007F49494936003E41414122007F414141E3
:100820003E007F49494941007F09090901003E41D5
:10083000415173007F0808087F0000417F4100009C
:100840002040413F01007F08142241007F4040408A
:1008500040007F021C027F007F0408107F003E41A1
:1008600041413E007F09090906003E4151215E00D9
:100870007F091929460026494949320003017F01B1
:1008800003003F4040403F001F2040201F003F40EA
:1008900038403F0063140814630003047804030025
:1008A0006159494D4300007F414141000204081055
:1008B0002000004141417F00040201020400404049
:1008C00040404000000307080000205454784000D6
:1008D0007F2844443800384444442800384444289D
:1008E0007F0038545454180000087E090200182470
:1008F000241C78007F080404780000447D40000038
:100900002040403D00007F102844000000417F400F
:1009100000007C04780478007C08040478003844E3
:10092000444438007C1824241800182424187C001F
:100930007C080404080048545454240004043F4430
:1009400024003C4040207C001C2040201C003C40F7
:1009500030403C004428102844004C9090907C008B
:100960004464544C44000008364100000000770005
:1009700000000041360800000201020402003C268B
:1009800023263C00000000000000000000000000E2
:1009900000000000C0E0F0F8F81800C0F0FCFEFF16
:1009A000FFFFFFFFFFFF7E000000000000000000CF
:1009B00080C0E0E0E0E0E0E0E0E0C08000000000B7
:1009C00080C0E0E0E0E0E0E0E0E0C080000000E0C7
:1009D000E0C0C0E0E0E0E00000E0E0C0C0E0E0E057
:1009E000E0E0C0800000000080C0E0E0E0E0E0E087
:1009F000E0E0C080000000000000000000000000F7
:100A00000000E0F0F0F0E0ECEEF7F37020007C7C0A
:100A10007C7E007E7E7E7F7F7F000080C0E07E5BEC
:100A20004F5BFEC00000C000DCD7DEDEDED7DC009E
:100A3000C0000000000000000000000000000000F6
:100A400000000000000000000000000000F8FCFEB4
:100A5000FFE000FFFFFFFFFFFF80FFFFFFFFFFFF43
:100A6000FFFFFF1F0701000000000000000000FF63
:100A7000FFFF8100000000000081C3C3C30000FF2E
:100A8000FFFF8100000000000081FFFFFF0000FF6A
:100A9000FFFF01000000000000FFFFFF0100000059
:100AA0000001FFFFFF0000FFFFFF9D1C1C1C1C1C22
:100AB0001C9DDFDFDF0000000000000000000000E0
:100AC00000000F1F3F7F7F7F7F7F3F1E0C001F1F97
:100AD0001F3F003F3F3F7F7F7F00307B7F7830208C
:100AE0002030787F3B0003000F7F0F0F0F7F0F0038
:100AF00003000000000000000000000000000000F3
:100B000000000000000000000000000000030F1FB4
:100B10003F3F3F3F1F1F3F3F7F7F7F3F3F1F3F7F45
:100B20007F7F7F7C7878381C0F0000000000000079
:100B30000103070707070707070703010000000075
:100B4000010307070707070707070301000000075E
:100B50000707000000000000000707070000000072
:100B60000000070707000000010307070707070742
:100B70000707030100000000000000000000000063
:100B80000000000000000000000000000000000065
:100B90000000000000000000000000000000000055
:100BA0000000000000000000000000000000000045
:100BB0000000000000000000000000000000000035
:100BC0000000000011241FBECFEFDAE0DEBFCDBF72
:100BD00027E0AEECB1E001C01D92AA31B207E1F707
:100BE00011E0A0E0B1E0EEE8F4E602C005900D925D
:100BF000AE3CB107D9F70E9420260C94F1310C9439
:100C00000000482F20910B059091D20457E0291342
:100C100002C080E0089530E0529FF001539FF00D34
:100C20001124ED52FB4F8181681306C08081481367
:100C300003C085818111EECF2F5F3F4F2770E7CF33
:100C4000FC01AC014C5F5F4F8FEF91E32191822754
:100C500028E030E087FF09C0880F8927215031093B
:100C6000C9F7E417F50791F70895880FF7CFE8ED76
:100C7000F0E080818E7F80831092E2001092DA0093
:100C80001092E100A0EEB0E08C9181608C938081A5
:100C90008F77808319BCA7EDB0E08C918E7F8C9309
:100CA00080818F7E80831092BB0408952091E400A0
:100CB0003091E50095E6A9012091EC00822F81702A
:100CC00020FF06C08091E80080FF06C080E0089504
:100CD0002091E80022FD1AC08091C804882389F081
:100CE000853089F08091EB0085FD0FC02091E400F4
:100CF0003091E50042175307F9F29150E1F684E094
:100D0000089582E0089583E0089581E00895809138
:100D1000CA0487FF13C08091E80082FF06C080915B
:100D2000E8008B778093E80004C08091C8048111AB
:100D3000F2CF08958091C8048823D9F38091E80008
:100D400080FFF8CF8091E8008E77ECCF982F9093BA
:100D5000E900242F762F50E0891731F07091EC00D4
:100D60002091ED005091F00021FD07C09F5F97306A
:100D700071F78093E90081E008953091EB003E7FA8
:100D80003093EB003091ED003D7F3093ED003091DA
:100D9000EB0031603093EB007093EC002093ED009A
:100DA0005093F0002091EE0027FDE0CF80E0089501
:100DB000B0E0A0E0EEEDF6E00C940830C8EDD0E035
:100DC00088818F7E8883E7EDF0E080818160808379
:100DD00084E082BF81E08093BB0488818E7F88831A
:100DE00002EE10E0F80110821092DA0081EEC82EB7
:100DF000D12CF601108288818F7788838881806862
:100E0000888388818F7D888319BC1092C8041092D2
:100E1000C9041092C7041092C60490EEE92EF12C7A
:100E2000F70180818B7F808388818160888342E0A5
:100E300060E080E00E94A606F60180818E7F8083BC
:100E4000F801808181608083808188608083F701E0
:100E500080818E7F8083888180618883CDB7DEB773
:100E6000E8E00C942430FC018091D0049091D104EE
:100E700086179707A0F06115710529F49091E80095
:100E80009E779093E80090E06115710551F49111FF
:100E900008C08091E80082FF34C080E00895BC0162
:100EA000F2CF8091C8048823C1F18530C1F18091CF
:100EB000E80083FD30C08091E80082FDEACF809198
:100EC000E80080FFE1CF8091F3002091F200382FFD
:100ED0006115710519F02830310558F091E028307E
:100EE000310509F090E02091E8002E772093E8008A
:100EF000CBCF81918093F100615071092F5F3F4FFB
:100F0000E7CF8091C804882341F0853041F080917B
:100F1000E80083FFBECF81E0089582E0089583E07A
:100F200008958091BD04089587E797E7909301089D
:100F30008093000888E19AE00FB6F894A895809312
:100F400060000FBE90936000FFCF2FB7F8946091C0
:100F5000B7047091B8048091B9049091BA042FBF7E
:100F60000895909154019923D1F09091B40497FF82
:100F700016C0E82FE695E695E695EE31E0F4F0E050
:100F8000E852FE4F282F277081E090E001C0880FC3
:100F90002A95EAF780959281892382830895E2ED6C
:100FA000F1E09191891303C0DF0111971C9291E048
:100FB000E83DF907B1F70895909154019923C1F0E4
:100FC0009091B40497FF14C0E82FE695E695E69556
:100FD000EE31F8F4F0E0E852FE4F877021E030E0A7
:100FE00001C0220F8A95EAF78281822B82830895BD
:100FF000A2EDB1E0EFEF90E02D91821751F0EF3FBD
:1010000019F4211101C0E92F9F5F9630A9F7EF3F36
:1010100009F408950E2E000CFF0BE053FE4FE6CFAF
:10102000A3E0B0E0E6E1F8E00C940E302091B204C9
:101030003091B30428173907A1F09093B30480933B
:10104000B204E091B004F091B104309751F024E083
:1010500029839B838A830084F185E02DCE0101964C
:1010600009952396E2E00C942A30A3E0B0E0EBE38C
:10107000F8E00C940E302091AE043091AF042817A4
:101080003907A1F09093AF048093AE04E091B004CF
:10109000F091B104309751F023E029839B838A8338
:1010A0000084F185E02DCE01019609952396E2E0BA
:1010B0000C942A308091AC04882359F0E091B0045C
:1010C000F091B104309729F00190F081E02D09955D
:1010D000089580E008958091A10480FD16C081FDEF
:1010E00016C082FD16C08091A0048823A1F088322A
:1010F00080F428E0829FC001112468E270E00E9421
:101100004F30862F672B39F0089582E0089584E0F0
:10111000089588E0089581E008958091A10480FDFC
:1011200014C081FD14C082FD16C080919F048823E5
:1011300081F08E3180F420E5829FC00111246EE1A0
:1011400070E00E944F30862F089584E1089588E270
:10115000089588E0089580E50895282F35EB23034E
:10116000C001112497FF04C080589109892F089568
:1011700080589F4FFBCF539A0895FA01811101C007
:10118000FB01099508950895EBEDF2E0118282814B
:10119000846082830895609150018091910480FF62
:1011A0000CC070E080914F0123E0829FC0011124A8
:1011B0008F519D4F0E9493110895809151019091FC
:1011C000520123E0829FF0011124EF51FD4F891756
:1011D00040F71182108212828F5F3396F8CF909180
:1011E000910490FF0EC0909151012091520133E083
:1011F000939FF0011124EF51FD4F921718F00E94B8
:10120000CB0808958183608342839F5F3396F5CF37
:1012100080919104982F9C7F61F483708460809307
:10122000910480919404893718F088E7809394049E
:1012300008958C3AB0F38370886AF1CFAF92BF9271
:10124000DF92EF92FF920F931F93CF93DF93182FAC
:10125000062FE901493708F048E7E42FF0E0E05FA6
:10126000FC4F011110C0E4915E2F4E2F4983E8839B
:101270005A83DF91CF911F910F91FF90EF90DF90F4
:10128000BF90AF900895202F30E04491D42EE42EEB
:10129000F12C56E0159FC0011124EFEFF0E0BF01E3
:1012A0000E94EA2F812F90E0880F991F55E5569FE5
:1012B000D001579FB00D11248A1B9B0B982F990FBB
:1012C000890F5F01A21AB30AAE9CD001AF9CB00D8A
:1012D000BE9CB00D11245B2F089F80011124012FAB
:1012E00011275F01A01AB10AAE9C8001AF9C100DBE
:1012F000BE9C100D11245F01A81AB108A29EC00166
:10130000A39E900DB29E900D1124892F9927E81B62
:10131000F90BEE9DC001EF9D900DFE9D900D1124E7
:10132000E92F62307105A1F050F46115710509F4DF
:101330009DCF6130710581F0EB2F512F97CF643035
:10134000710569F080F06630710509F48FCFF4CF34
:10135000E42F4B2F592F8ACFE42F412F87CFEB2F2C
:10136000542F492F83CF4B2F5D2DE12F7FCF0F932C
:101370001F93CF93DF93EC0110E000E090915301B5
:101380009017110609F06CF40E94CB088C8190E054
:101390000196817099278C83DF91CF911F910F91D6
:1013A000089520915101A801420F511D9A01220F69
:1013B000331F240F351F2F513D4F4C8160919304F3
:1013C0008091920496959017110651F04CF04423A9
:1013D00049F0409194040E941E090F5F1F4FCECF29
:1013E0004423B9F340E0F7CFA3E0B0E0EAEFF9E03F
:1013F0000C940C308C018091E00281110AC09E0196
:101400002F5F3F4F48E76FEF0E941E098A8180934C
:10141000E002F8016481613069F08091E00240E00F
:10142000662361F040E0623011F44091E00280E018
:1014300060E004C06091E00240E080E00E94EF08BC
:10144000F801848190E0019663E070E00E944F30E3
:1014500084832396E4E00C942830B0E0A0E0E3E33A
:10146000FAE00C940430EC014C81042F10E0980158
:10147000D8010E94E2319B01AC010E94AD314B01C9
:101480005C01E0E2F0E0E01BF10BA5E5B0E0AC01AF
:101490009B010E94AD316B017C019F01DF010E9425
:1014A00069309B01AC010E94B8319B01AC01280D51
:1014B000391D4A1D5B1DC701B6010E94C031F22EC5
:1014C000822F90E039E23F1520F143E0249F900104
:1014D000112435952795122F109500E085E5E82E0B
:1014E000EF1880915301081718F10E94CB089C81D6
:1014F00081E0992319F0903219F48FEF80934E0117
:1015000080914E01890F8C83CDB7DEB7ECE00C944F
:10151000203025E530E0B901681B790B9B01220FD3
:10152000331F260F371F37FFD4CF2F5F3F4FD1CF49
:101530008E2D01FD8F2D20915101622F600F772795
:10154000771F9B01220F331F260F371F2F513D4F4F
:10155000412F609193040E941E090F5FC2CFEF924A
:10156000FF920F931F93CF93DF93EC018C81811136
:1015700009C081E08C831092DF0292E090934D01CC
:1015800080934C01809151019091520123E0829F00
:10159000F0011124EF51FD4F891758F110E003E0DD
:1015A00060915301161758F10E94CB0880914C01AD
:1015B0002091DF02280F2093DF0290914D01980FB8
:1015C00090934D01191654F4022E000C330B4091E8
:1015D00053014150550B2417350734F08195809302
:1015E0004C01813009F41C82CDB7DEB7E6E00C94E3
:1015F00026301182108212828F5F3396CDCFE12E7A
:10160000F12C70E0C7010E944F3020915101820FF0
:10161000482F50E02091DF02022E000C330BE2161F
:10162000F306BCF020914D01022E000C330B2E1559
:101630003F057CF0809F900111242F513D4F409138
:10164000940460919304809192040E941E091F5F8C
:10165000A7CFFA01EE0FFF1FE40FF51FEF51FD4F6B
:10166000118210821282F3CFB0E0A0E0EAE3FBE047
:101670000C940430EC018A81BB24BA9480FD02C032
:10168000BB24B394A09053018C81811109C081E0E7
:10169000B81220C08FEF8A0D8093DE0281E08C8328
:1016A000F12CE12C46E3942EEA14B8F00E94CB080A
:1016B0008091DE0291E0B91257C0811150C0809133
:1016C000530181508093DE021C82CDB7DEB7ECE07F
:1016D0000C9420301092DE02E1CF009151010E0DEA
:1016E0001F2D111DC801880F991F080F191F0F51B9
:1016F0001D4FF80111821082128234E0C32ED12CCA
:10170000812C8091DE02880D87332CF1692D0E9497
:101710004130892F082E000C990B8E159F0591F4EE
:10172000809194048C9DA0018D9D500D11245595A0
:10173000479555954795980160919304809192043F
:101740000E941E098B0CF1E0CF1AD108D1F68FEF61
:10175000E81AF80AA9CF87FFDDCF8A0DDBCF8150C9
:101760008093DE02BC82B1CF90E00196609153017C
:1017700070E00E944F308093DE028C83A6CFEF9200
:10178000FF921F93CF93DF93EC0110E0EE24EA94D5
:10179000F12C60915301161770F00E94CB089A81CA
:1017A0008C8190FF27C08F5F8C83DF91CF911F9139
:1017B000FF90EF90089520915101422F410F55273E
:1017C000551FCA019A01220F331F280F391F2F51AD
:1017D0003D4F70E0C7010E944F30962F8C814091A1
:1017E000940460919304199F800D11240E941E0996
:1017F0001F5FCFCF8150D8CFA3E0B0E0E2E0FCE0A4
:101800000C940E309091910490FF0AC09E012F5FBE
:101810003F4F0E941E094B8169818A810E94EF0817
:101820002396E2E00C942A30CF93DF93EC01E1E9B8
:10183000F4E0438162818C810E94FC0B8C818F5F7C
:101840008C83DF91CF910895CF93DF93EC01EC81EE
:10185000F0E0EB5EFB4F4491E1E9F4E062818181CD
:101860000E94FC0B8C818F5F8C83DF91CF91089558
:1018700080E00895F894E82FE295EF70F0E031A150
:10188000282F2F7081E090E001C0880F2A95EAF799
:10189000982F9095932391A392A1892B82A378945A
:1018A00008950F931F938091AC04882329F00E9420
:1018B000A5071F910F9108950E94A50700917E0230
:1018C00010917F022091800230918102600F711F80
:1018D000821F931FEECF9091B40492FF10C041E09D
:1018E000282F2471243009F040E031E0282F28719E
:1018F000283009F030E0431711F02CE0822793FFE5
:1019000010C041E0282F2471243109F040E031E07B
:10191000282F2871283109F030E0431711F02CE00E
:1019200082273091B50430FF10C051E0282F21717B
:10193000213009F050E041E0282F2871283009F0CB
:1019400040E0541711F029E0822731FF10C041E038
:10195000282F2171213109F040E031E0282F287132
:10196000283109F030E0431711F029E0822794FD77
:10197000877E089582389105B9F1B0F481339105DD
:1019800009F47DC048F48932910509F46DC08A32AA
:10199000910509F47BC008958533910509F45FC072
:1019A0008933910509F10895833E9105D9F138F401
:1019B000803E910529F1823E910579F10895863E98
:1019C0009105D9F1873E910509F43EC0843E910509
:1019D00041F52091B50421FF24C08091B40484FD19
:1019E00019C087EE90E008952091B404237009F0A7
:1019F0005AC02091B50423FF14C089E290E00895F5
:101A00002091B40420FD38C03091B50430FF09C0E6
:101A100024FF43C090E080E008952091B40422FDAB
:101A2000F7CF08952091B40422FD3AC03091B50457
:101A300030FD39C024FFF5CFEDCF2091B40423FF52
:101A4000F0CF24FDE7CFCDCF2091B40423FD2EC0ED
:101A50003091B50431FFEECF84EE90E008952091EF
:101A6000B40425FFDECFC9CF2091B40425FD21C0E9
:101A70002091B50423FFD5CF89E390E0D2CF209108
:101A8000B40426FFCECF8AE290E008952091B404FA
:101A900026FFC7CF81E390E0089583EE90E008959C
:101AA00082EE90E0089580EE90E0089586EE90E05A
:101AB000089585E390E00895972F7830B8F4663064
:101AC000A8F48430B0F470E026E0929F600D711DA0
:101AD0001124FB0190E3899FE00DF11D1124EE0F0D
:101AE000FF1FE851FF4F85919491089580E090E0A9
:101AF000089581E0FCCF1F93CF93DF930E94BA0C2F
:101B0000EC01C11580E5D807F0F5C11580E4D807D0
:101B100008F09CC0C03ED10520F5CD3CD10508F0B1
:101B200082C0C83AD10578F4C53AD10508F073C02F
:101B3000C130D10519F1209709F1C430D105F0F475
:101B4000D0E0C0E01BC0C33CD105D0F7C85AD0E0FC
:101B5000CC0FDD1FC85ADE4F0990D881C02DD46448
:101B60000DC0C11580E2D80708F0D1C0C11581E0D1
:101B7000D80708F05AC0C83ED10510F7CE01DF9152
:101B8000CF911F910895C03682E5D80718F5C0346B
:101B900082E5D80708F06BC0C03282E5D80708F0AC
:101BA0005FC0C11582E5D80708F497C02C2F269591
:101BB000269580E2289F900111248C2F8370C1E02C
:101BC000D0E002C0CC0FDD1F8A95E2F7C22BD32BE9
:101BD000DD68D4CFC03A82E5D80760F4C03882E52A
:101BE000D80708F459C0CF71D0E0DC2FCC27C46FE0
:101BF000D06AC4CFC03C82E5D80708F462C0C03EBA
:101C000082E5D80708F09CCFDC2FCC27CC27DF71EA
:101C1000C06FD06AB3CFC55AD0E0CB5ADE4FC8816F
:101C2000D0E0D064ABCFD065A9CF8D2F0E946B0CD4
:101C3000182FCE0199270E94BA0CC12FD0E0DC2FBB
:101C4000CC27CC27DF71C82BD92B98CFCE01992771
:101C50000E94BA0CCC27DF70C82BD92BD06A8ECF4C
:101C6000CF71D0E0DC2FCC27C16FD06A87CF2C2F6B
:101C700026952695277080E2289F900111248C2FAD
:101C80008370C1E0D0E002C0CC0FDD1F8A95E2F77F
:101C9000C22BD32BDC6872CF2C2F2695269527706C
:101CA00080E2289F900111248C2F8370C1E0D0E046
:101CB00002C0CC0FDD1F8A95E2F7C22BD32BDA6866
:101CC0005DCF8C2F8F710E946B0CC82FD0E0DC2F62
:101CD000CC27CC27DF71D06251CF8C2F8F710E941F
:101CE0006B0C55E0D695C7955A95E1F7CF70D0E0CB
:101CF000DC2FCC27282F30E084FF05C044E0220FE2
:101D0000331F4A95E1F7C22BD32BD06937CF8D2FE4
:101D10008F710E946B0C182FCE0199270E94BA0C6C
:101D2000C12FD0E0DC2FCC27CC27DF71C82BD92BDB
:101D3000D2CF8095909144029823909344020895C5
:101D40008091440290911B02892B90911A02992351
:101D500091F0892B90915401992371F09091B404E2
:101D600097FF0AC09EE12AED31E040E0915040F437
:101D7000411110921A02089596E022ED31E0F5CF5C
:101D8000F90151919F01552389F34F5FEFCF809166
:101D90000B059091D204981301C008958F5F87704E
:101DA000FACFB0E0A0E0E7EDFEE00C9407307C0154
:101DB0000091A3021091A40280918C0290918D0257
:101DC000082B192BCFE0D0E0CC24C394D12CBC2E0F
:101DD000C6010C2E02C0880F991F0A94E2F78023D7
:101DE0009123892B49F4219790F7B12C8B2DCDB7F6
:101DF000DEB7E9E00C942330B7018C2F0E945C0D14
:101E00000E947B0D019779F3F1CFCF93DF93EC0123
:101E10000E94D10EBE010E945C0D0E947B0DDF91DD
:101E2000CF910895983078F5863068F5E82FF0E086
:101E300086E0989FE00DF11D11249E2F977083E09E
:101E4000F695E7958A95E1F7EE0FFF1FEE0FFF1F5E
:101E5000E650FE4F50E040E080E0219130E0092E56
:101E600002C0369527950A94E2F721703327042E95
:101E700001C0220F0A94EAF7822B4F5F5F4F443074
:101E8000510559F7089580E00895983098F5863007
:101E900088F5E82FF0E086E0989FE00DF11D112411
:101EA0008E2F877041E001C0440F8A95EAF783E0E6
:101EB000F695E7958A95E1F7EE0FFF1FEE0FFF1FEE
:101EC000E650FE4F30E020E070E05191DF011197C5
:101ED000CB01022E02C0969587950A94E2F7817095
:101EE00081958527842385278C932F5F3F4F24304E
:101EF000310559F708959093A4028093A3020895A1
:101F000021E030E002C0220F331F8A95E2F72095CE
:101F100030958091A3029091A402822393230E9482
:101F20007B0F08959091190280958923809319025F
:101F3000282F277069F4891759F09091B50492FF02
:101F400007C08695869586950E94800F109219028B
:101F5000089521E030E002C0220F331F8A95E2F796
:101F60008091A3029091A402822B932B0E947B0F5D
:101F7000089590938D0280938C020895FC01248132
:101F80002223C1F0808191810E94050F92959F705C
:101F9000963091F058F4925F9F70923058F4803FE1
:101FA00019F030F4883E30F481E008959A5FF4CF60
:101FB000843FD1F380E00895883EB0F3813FD1F7AC
:101FC000F3CFA6E0B0E0E7EEFFE00C940D304983DC
:101FD0005A8349815A819923A1F0222391F0CA01A1
:101FE0000E94D10E182F682F89819A810E94450F77
:101FF00069817A81812F0E945C0D2696E3E00C9422
:102000002930CA010E94120F182FF2CFCF93DF930D
:10201000682F81E06A3019F06D3031F480E00E9461
:102020009410DF91CF91089580911807909119072E
:1020300026E0FC01A2E1B7E001900D922A95E1F7BC
:10204000603E08F458C026E0FC0111922A95E9F799
:10205000C0911807D091190746E050E0BE0182E117
:1020600097E00E9420319E0122513540892B41F199
:10207000C90145E0969587954A95E1F741E050E022
:10208000BA0102C0660F771F8A95E2F7CB01609113
:10209000100570911105862B972BB9016B5F7F4F4F
:1020A000E5E076956795EA95E1F702C0440F551F84
:1020B0006A95E2F7842B952B909311058093100578
:1020C0002A5F3F4F40910F05642F70E0C9010E94C5
:1020D000EA2F481B463010F4240F311D211572E001
:1020E000370710F030E020E02E5E3A4F30931907AA
:1020F0002093180796CFF6E06F9FB00111246C571C
:10210000794F46E050E00E940A31A2CFCF93DF938F
:10211000EC01FE018491811103C0DF91CF910895FC
:102120000E9406102196F5CFCF93382FE091180723
:10213000F0911907E251F54020910F05622F70E0F0
:10214000CF010E94EA2F281B822F332361F066E023
:102150000E943530C82FC15010F4CF91089580E20D
:102160000E940610F8CF9F01280F311D2115324023
:1021700018F080E0F0E0E0E08E0F9F2F911D8E5E62
:102180009A4F9093190780931807E7CF0E94861003
:1021900081E00E949410089580915401882359F1A0
:1021A0008091B40487FF27C00E94A00E8093D901BC
:1021B00040E250E06CE172E088ED91E00E94203155
:1021C000892BC1F080E2E8EDF1E0ACE1B2E00190F2
:1021D0000D928A95E1F7E091B004F091B104309747
:1021E00049F086E08093D8010480F581E02D88EDE8
:1021F00091E0099508950E94A00E8093D00148E0D7
:1022000050E06CE372E080ED91E00E942031892B78
:1022100089F388E0E0EDF1E0ACE3B2E001900D92EB
:102220008A95E1F7E091B004F091B104309711F391
:102230000280F381E02D80ED91E0DBCF882321F057
:102240000E94990E0E94CC100895882339F0909135
:102250004402982B909344020E94CC1008950F934F
:102260001F93CF93DF938B01EA019091C8049430C0
:1022700061F58093E9008FEF9091E800815095FD22
:1022800006C095ED9A95F1F700008111F5CF809188
:10229000E80085FF1AC00E945606811111C0809186
:1022A000E80085FD06C08091E8008E778093E80005
:1022B000F2CFF80181918F018093F100219779F796
:1022C0008091E8008E778093E800DF91CF911F9195
:1022D0000F91089543E050E0BC0182E00E942F116D
:1022E000089546E050E0BC0182E00E942F1108955D
:1022F00040E250E0BC0182E00E942F110895CF938C
:10230000DF93EC0148E050E0BC0181E00E942F1116
:1023100088E0FE01AEEBB4E001900D928A95E1F702
:10232000DF91CF9108954BB1477F5BB15860EFB714
:10233000F8949B01220F331F260F371F280F391FD8
:102340002817390741F4EFBF8FE594E00197F1F7C3
:1023500000C000000895DC016D91CD0178E05BB90B
:10236000000000C067FF4BB9660F000000C000C04E
:1023700000C04BB900C07A9591F7E2CFB0E0A0E081
:10238000E4ECF1E10C9406307C015B016A01809180
:102390007D0201E010E08A3010F40AE010E0C1E0B4
:1023A000D0E0B501C701F6010995811104C021965D
:1023B0000C171D072CF4CDB7DEB7EAE00C942230E1
:1023C000CC9F9001CD9F300D300D112490E080E026
:1023D00045E34A95F1F70000019682179307C1F78C
:1023E000E0CFAB0124E630E0BC0188E70E949E2DDF
:1023F00021E0892B09F020E0822F089580919D042F
:1024000090919E04911103C091E08927089588233B
:1024100069F062E070E087E195E00E94F1118111BE
:1024200003C080919D04089510929D0480919D04A5
:10243000EBCFCF93C0919D0480919E048823D1F06F
:102440000E94A507605A75418F4F9F4F6093990472
:1024500070939A0480939B0490939C04C11108C0CC
:1024600062E070E085E195E00E94F111811105C004
:10247000C0919D048C2FCF91089581E080939D049D
:10248000F7CFB0E0A0E0E7E4F2E10C940030FC010B
:102490006280448081E08483E5E1F4E07490E4E9C3
:1024A000F4E0E491C0919404C695C158D0E0CC0FFB
:1024B000DD1FCD2FDD27812C75E0972EAA24AA944D
:1024C000B12C55245A94E719EE2EF12C809153012A
:1024D000881638F00E94CB08CDB7DEB7E0E10C9447
:1024E0001C30C82CD12C82E0861568F09C9CF00131
:1024F0009D9CF00D1124ED57FC4F80919204808338
:10250000809193048183411023C09C9CF0019D9C89
:10251000F00D1124ED57FC4F1382128220915101CE
:10252000C601820F911D9C01220F331F280F391FF6
:102530002F513D4F9C9CF0019D9CF00D1124ED57B7
:10254000FC4F4281618180810E941E098394BECF2D
:102550009C9C80019D9C100D11240D571C4FF8016F
:1025600083818823F1F081508383859DC0011124EC
:10257000648170E00E94EA2FFB01FF27EB5EFB4FB6
:102580008491E82FE719E59DC0011124B7010E944D
:10259000EA2F80919404689FB0011124F80172839E
:1025A000BDCF0E94FA30B5010E944F308C179D07B5
:1025B0000CF0B4CFF2E0F61598F40E94FA30B501B1
:1025C0000E944F30F80180830E94FA3020919304DA
:1025D0002695622F70E00E944F30280FF80121836A
:1025E0009C9CF0019D9CF00D1124ED57FC4F128234
:1025F00080919404893C58F088EC9C9CF0019D9C4F
:10260000F00D1124ED57FC4F8483838387CF8431F1
:10261000A0F784E1F2CFB0E0A0E0E1E1F3E10C94B7
:10262000043049015A016B017C010E9408098401B0
:10263000A4016A2D7B2D88E090E00E946C3194010A
:102640004A2D5B2DB601C70100E20E949330622F34
:1026500083E290E00E945A31CDB7DEB7ECE00C94F3
:102660002030A3E0B0E0E7E3F3E10C940730082F5B
:10267000E62EF42EC22E9091910490FF41C020913D
:102680009204281308C080919304861304C080919B
:102690009404841729F08091DD0282608093DD022A
:1026A000E92FE695E695AE2FB0E0AE55BE4F8C9182
:1026B0008093DB029C7F943039F59E012F5F3F4F62
:1026C0004F2D6E2D802F0E941E094B8169818A81BA
:1026D0000E94EF0800939204E0929304F092940415
:1026E000CC2071F020919104609195047091960432
:1026F000302FA70180919704909198040E940B13AA
:102700002396E9E00C942330823019F4F09094047D
:10271000E1CF8630A1F1893091F18931D9F6E951C3
:102720006E2F6170B62EE695F0E0E05FFB4F1491DE
:10273000D12C60915301D61618F00E94CB08CACF55
:10274000D19EC001112470E00E94EA2F802FB110A9
:1027500014C0860F20915101622F6D0D7727771FCE
:102760009B01220F331F260F371F2F513D4F4F2D37
:102770006E2D0E941E09D394DCCF861BEBCF022F57
:10278000A9CFE1E9F4E0438121E1421B08F440E0F4
:1027900021E0628181810E9431130895E1E9F4E032
:1027A000438121E1420F08F44FEF21E062818181F2
:1027B0000E9431130895E1E9F4E0628121E1621B96
:1027C00008F460E021E0438181810E943113089583
:1027D000E1E9F4E0628121E1620F08F46FEF21E0AA
:1027E000438181810E9431130895E1E9F4E0818100
:1027F00021E0438162818A500E9431130895E1E90A
:10280000F4E0818121E043816281865F0E9431137F
:10281000089580919504882319F081508093950440
:10282000209191043091920440919304509194042A
:10283000609195047091960480919704909198040A
:102840000E940B13089580919504833018F48F5FD4
:1028500080939504209191043091920440919304C7
:10286000509194046091950470919604809197041E
:10287000909198040E940B1308959091B50492FBD7
:10288000222720F9281779F080FB92F99093B5045C
:102890006091B4047091B50484E090E00E947831B6
:1028A00082E00E94920F08954F925F926F927F9202
:1028B0008F929F92AF92BF92EF92FF920F931F93CE
:1028C000CF93DF937B01FB01408051806280738056
:1028D0009FB7F8948090B7049090B804A090B90482
:1028E000B090BA049FBF84189508A608B708F4E60C
:1028F0008F169104A104B10418F4C1E0442329F116
:10290000C82F880FDD0BFE0183E0EE0FFF1F8A95B5
:10291000E1F7EC5FFE4F81819281835A9D4F4081A8
:1029200050E00417150708F4A801B9010E942D31E1
:10293000CE010E94742FC82F882339F00E94A5076A
:10294000F70160837183828393838C2FDF91CF9112
:102950001F910F91FF90EF90BF90AF909F908F903D
:102960007F906F905F904F900895ABE0B0E0EBEBFD
:10297000F4E10C940C3088E0E1E9F4E0DE0111961A
:1029800001900D928A95E1F78091DB029091DC0233
:10299000A091DD0289879A87AB8741E08B85811101
:1029A00001C040E00BE010E09E012F5F3F4F69E760
:1029B00072E084E00E94541481111092DD022B9683
:1029C000E4E00C9428300F931F93CF93DF93EC0136
:1029D00044E050E062E672E00E94203141E0892B41
:1029E00009F440E004E010E09E0169E572E082E055
:1029F0000E945414DF91CF911F910F910895A4E08C
:102A0000B0E0E5E0F5E10C940D3040917502509195
:102A1000760260917702709178022FB7F8948091D6
:102A2000B7049091B804A091B904B091BA042FBF33
:102A3000841B950BA60BB70B11E084369105A105FD
:102A4000B10570F10E94510C6E5F7F4F8F4F9F4F09
:102A500069837A838B839C8380911D0190911E01F1
:102A6000835A9D4F40911C0150E04530510510F0B4
:102A700044E050E0BE016F5F7F4F0E942D3183E044
:102A800090E00E94742F182F882351F00E94A50710
:102A90006093750270937602809377029093780228
:102AA000812F2496E3E00C942930EF92FF921F933C
:102AB000CF93DF9300D000D00F92CDB7DEB77B016C
:102AC00090E080E00E94742F182F882309F487C0BB
:102AD0004091070150E04115510511F041E050E0EF
:102AE0006091080170910901635A7D4FCE010596EE
:102AF0000E942D314091550250915602609157022B
:102B0000709158022FB7F8948091B7049091B8044F
:102B1000A091B904B091BA042FBF841B950BA60BEA
:102B2000B70B84369105A105B10540F48EE592E01E
:102B30000E9420069D81891709F451C081E090E030
:102B40000E94742F81111AC010E08091510290915F
:102B50005202A0915302B0915402F70180839183F5
:102B6000A283B383812F0F900F900F900F900F903F
:102B7000DF91CF911F91FF90EF90089540910F0149
:102B800050E04530510510F044E050E060911001F4
:102B900070911101635A7D4FCE0101960E942D3133
:102BA0008EE592E00E9420069D818913CDCF0E9480
:102BB000A507609355027093560280935702909335
:102BC000580289819A81AB81BC8180935102909394
:102BD0005202A0935302B093540211E0B6CF8091F9
:102BE0005E0290915F02A0916002B09161028983C0
:102BF0009A83AB83BC831111E4CFA7CF1F920F92AE
:102C00000FB60F9211242F933F934F935F936F93BF
:102C10007F938F939F93AF93BF93EF93FF93809195
:102C2000E10082FF09C08091E20082FF05C080912F
:102C3000E1008B7F8093E1008091DA0080FF24C067
:102C40008091D80080FF20C08091DA008E7F809331
:102C5000DA008091D90080FF9DC080E189BD82E1CA
:102C600089BD09B400FEFDCF81E08093C804809146
:102C7000BB04811109C00E9437060E94D8068091CA
:102C8000E20084608093E2008091E10080FF17C041
:102C90008091E20080FF13C08091E2008E7F8093DC
:102CA000E2008091E20080618093E2008091D80090
:102CB00080628093D80019BC85E08093C80480911D
:102CC000E10084FF2BC08091E20084FF27C080E1F7
:102CD00089BD82E189BD89B5982F917080FFFBCFB6
:102CE0008091D8008F7D8093D8008091E1008F7E05
:102CF0008093E1008091E2008F7E8093E2008091DA
:102D0000E20081608093E2008091C904882309F485
:102D100047C084E08093C8048091C8048091E1009A
:102D200083FF27C08091E20083FF23C08091E100F0
:102D3000877F8093E10082E08093C8041092C904E9
:102D40008091E1008E7F8093E1008091E2008E7F90
:102D50008093E2008091E20080618093E20042E093
:102D600060E080E00E94A6068091F0008860809379
:102D7000F000FF91EF91BF91AF919F918F917F9163
:102D80006F915F914F913F912F910F900FBE0F90D8
:102D90001F90189519BC1092C8041092BB0474CFF0
:102DA0008091E30087FD93E09093C804B5CF7894B9
:102DB0001F921FB61F9211248F939F93AF93BF93BF
:102DC0008091B7049091B804A091B904B091BA046D
:102DD0000196A11DB11D8093B7049093B804A093F0
:102DE000B904B093BA04BF91AF919F918F911F9096
:102DF0001FBE1F9018959C014FB7F8948091B7049F
:102E00009091B804A091B904B091BA044FBF821B4D
:102E1000930B08952FB7F8948091B7049091B8045C
:102E2000A091B904B091BA042FBF08950E940A1767
:102E30009C019091A8048091A904982B21F03093D3
:102E4000A5042093A4049091AA048091AB04982B2C
:102E500021F03093A3042093A204E091B004F091F8
:102E6000B104309749F082E08093A6040680F78190
:102E7000E02D86EA94E0099508951092440280912D
:102E80005401882339F18091B40487FF23C0EAED0F
:102E9000F1E08EE1DF011D928A95E9F790E080E094
:102EA0000E94350890E080E00E94100810921B02FA
:102EB0000E94CC1086E0E6EAF4E0DF011D928A95DC
:102EC000E9F710929F041092A0041092A1040E94AE
:102ED00016170895E2EDF1E086E0DCCFAAE2B0E05B
:102EE000E4E7F7E10C940D308AEC94E02091F100D6
:102EF000FC012193CF01F4E0823D9F07B9F7809157
:102F0000CB04833009F470C0B8F4813009F447C0B1
:102F1000823009F4B1C08091E80083FF7EC28091C5
:102F2000CA049091CB049A3008F077C2E92FF0E000
:102F3000ED50FE4C0C9463308A3009F48CC08B3019
:102F400009F46FC0893039F78091CA04813219F7CA
:102F50008091CE049091CF040297E8F68091E8002A
:102F6000877F8093E8008091E80082FF38C09091CD
:102F7000F3008091F200029731F48091F1008130EA
:102F800011F0863021F48091F1008093BD0480918E
:102F9000E8008B778093E8000E948706BCCF809181
:102FA000CA04813A09F0B7CF8091E800877F809307
:102FB000E8008091CE049091CF04892B61F468E001
:102FC0008EEB94E070E00E9433078091E8008B77ED
:102FD0008093E800A0CF60E090E080E0F3CF8091A4
:102FE000C8048111C0CF97CF8091CA04813A09F0FB
:102FF00092CF8091CE049091CF04892B09F08BCF92
:103000008091E800877F8093E8008091E80080FF4E
:10301000FCCF809154018093F1008091E8008E777D
:10302000B9CF8091CA04813209F075CF8091CE0466
:103030009091CF04892B09F06ECF8091E800877FB3
:103040008093E8000E9487068091CC04809354010D
:103050000E943D1760CF8091CA04813209F05BCF96
:103060008091E800877F8093E8000E948706809126
:10307000CD048093BC044FCF8091CA04813A09F0FB
:103080004ACF8091E800877F8093E8008091E80034
:1030900080FFFCCF8091BC04BECF803899F082388D
:1030A00009F0BBC18091CE048F70873008F0B5C1A4
:1030B0008093E9008091EB0085FB882780F91092CE
:1030C000E90006C08091C6049091C7049111826006
:1030D0009091E800977F9093E8008093F100109220
:1030E000F1008091E8008E7794C1882309F482C1B1
:1030F000823009F092C18091CC04811185C1809108
:10310000CE048F702FEF280F263008F086C18093F1
:10311000E9002091EB0020FF77C1933031F48091DA
:10312000EB0080628093EB006FC19091EB009061A7
:103130009093EB0021E030E001C0220F8A95EAF77E
:103140002093EA001092EA008091EB008860EACFB9
:10315000811163C11091CC041F778091E3008078C6
:10316000812B8093E3008091E800877F8093E800C3
:103170000E9487068091E80080FFFCCF8091E300E9
:1031800080688093E30082E0111183E08093C8049B
:1031900044C18058823008F040C18091CC049091A5
:1031A000CD048C3D23E09207A1F583E08A838AE277
:1031B00089834FB7F894DE01139620E03EE051E298
:1031C000E32FF0E050935700E49120FF03C0E29515
:1031D000EF703F5FEF708E2F90E0EA30C0F0C7963F
:1031E0008D939D932F5F243159F74FBF8091E80055
:1031F000877F8093E8006AE270E0CE0101960E942A
:1032000033078091E8008B778093E80006C1C09671
:10321000E7CF4091CE045091CF04292F332723309C
:10322000310509F444C078F52130310509F46FC047
:103230008BE390E0E3E1F6E02230310509F0EDC0E8
:103240002091E800277F2093E8002091D00430915E
:10325000D1048217930708F49C0140E02115310541
:1032600009F064C0411162C08091E80082FDC9CFBD
:103270008091C804882329F2853019F28091E800F2
:1032800083FFF2CFBECF21323105A9F122323105C1
:1032900009F0C3C04115510509F443C0413051053F
:1032A00009F0BBC086EB90E0E9E1F5E0C9CF9927D2
:1032B00081309105C1F0009759F0029709F0ADC037
:1032C000E0E6F6E0E4918E2F90E0E0E6F6E007C05D
:1032D000E0E8F6E0E4918E2F90E0E0E8F6E0009779
:1032E00009F49BC0ADCFEEE6F6E0E4918E2F90E0BE
:1032F000EEE6F6E0F4CF4115510571F0413051058D
:1033000009F08BC089E090E0EEE3F6E099CF82E12E
:1033100090E0EEE4F6E094CF89E090E0E5E2F6E0BC
:103320008FCF84E490E0EFECF5E08ACF8091C80481
:10333000882309F466CF853009F463CF8091E800D3
:1033400083FD5FCF8091E80082FD8ECF8091E80001
:1033500080FF84CF9091F3008091F2002115310518
:1033600019F08830910550F041E0089709F040E0ED
:103370008091E8008E778093E80070CF449140936D
:10338000F1003196215031090196E8CF803809F0DB
:1033900044C08091E800877F8093E8008091C90451
:1033A0008093F1009ECE811138C01091CC04123070
:1033B000A0F58091E800877F8093E8001093C9040E
:1033C0000E948706112311F084E005C08091E3007C
:1033D00087FDFACF81E08093C80442E061EC81E090
:1033E0000E94A60642E261EC82E00E94A60680915D
:1033F000C80413C08091CC04813079F481E093300B
:1034000009F080E08093C7041092E9008091E80001
:10341000877F8093E8000E9487068091E80083FF01
:103420000AC08091E800877F8093E8008091EB00DC
:1034300080628093EB00AA96E3E00C9429301F92FF
:103440000F920FB60F9211242F933F934F935F93D8
:103450006F937F938F939F93AF93BF93CF93DF939C
:10346000EF93FF93D091E900DF708091EC00C82FBB
:10347000C17080FDC0E81092E9008091F000877F64
:103480008093F00078940E946E171092E90080916A
:10349000F00088608093F000CD2BCF70C093E900DE
:1034A000FF91EF91DF91CF91BF91AF919F918F915C
:1034B0007F916F915F914F913F912F910F900FBE30
:1034C0000F901F9018950E943D172FEF84E39CE00A
:1034D000215080409040E1F700C0000088E19AE070
:1034E0000FB6F894A895809360000FBE909360008B
:1034F000FFCF662309F45DC08D3C41F40E948D0826
:1035000081958093A9040E94161708958E3C19F4A2
:103510000E948D08F6CF8F3C31F40E948D08819572
:103520008093A804F0CF803D19F40E948D08F8CF55
:10353000893D29F40E946B088093AA04E4CF8A3D58
:1035400021F40E946B088195F7CF8B3D31F40E94E6
:103550006B0881958093AB04D6CF8C3D19F40E9403
:103560006B08F8CF9FE2980F983070F4815D990B4B
:1035700021E030E001C0220F8A95EAF78091A7048C
:10358000822B8093A704BFCF8D3D31F48091A1049D
:1035900081608093A104B7CF8E3D21F48091A10476
:1035A0008260F7CF8F3D09F0AECF8091A104846097
:1035B000F0CF4091A8048D3C59F48091A90487FF75
:1035C0000DC01092A90441110BC010929F0408C0B5
:1035D0008E3C81F48091A90418169CF3442381F059
:1035E0008091AA049091AB04892B09F08CCF1092A2
:1035F000A00489CF8F3C49F447FFF0CF1092A80474
:103600008091A9048111ECCFE0CF803D19F414160C
:10361000ACF3E4CF9091AA04893D29F41916F4F68D
:103620001092AA04DBCF8A3D19F497FFD7CFF8CFC9
:103630009091AB048B3D29F497FFD0CF1092AB044F
:10364000CDCF8C3D19F41916CCF3C8CF9FE2980F5B
:10365000983090F4815D990B21E030E0B90102C00F
:10366000660F771F8A95E2F7CB0180959091A704AA
:1036700089238093A704B2CF8D3D31F48091A104BA
:103680008E7F8093A104AACF8E3D21F48091A10466
:103690008D7FF7CF8F3D09F0A1CF8091A1048B7F63
:1036A000F0CF882381F19CEF980F913A28F40E9483
:1036B000B1070E94CC10089590E2980F983050F412
:1036C000877091E001C0990F8A95EAF7892F0E94CF
:1036D000990EEFCF9BE5980F933028F490E080E0AF
:1036E0000E943508089598E5980F9B3128F490E0E2
:1036F00080E00E941008089593E3980F933118F426
:1037000060E00E94791A0895CF93C82F8823B1F101
:103710008CEF8C0F813AA0F580915401882301F140
:103720008091B40487FF1CC0EC2FE695E695E695E2
:10373000F0E0E852FE4F828190E04C2F477021E08C
:1037400030E002C0220F331F4A95E2F78223932311
:10375000892B79F08C2F0E94B1070E94CC1009C0F0
:10376000E2EDF1E08191C817A9F381E0E83DF807A7
:10377000C9F78C2F0E94DC070E94CC10CF910895CE
:1037800080E28C0F883068F4C77021E030E001C01F
:10379000220FCA95EAF780914402822B809344025B
:1037A000EBCFEBE5EC0FE33040F4F0E0EB5AFE4FEB
:1037B000808190E00E943508E1CFE8E5EC0FEB3125
:1037C00050F4F0E0EE0FFF1FE85AFE4F8081918128
:1037D0000E941008D3CF83E38C0F833178F661E029
:1037E0008C2F0E94791ACACF0F931F93CF93DF9328
:1037F000C62FD42F022FFC0185818823A9F0609366
:103800000E050E940A1790930D0580930C05C77052
:1038100081E001C0880FCA95EAF70E942511DF9167
:10382000CF911F910F91089580910E05681335C0B7
:1038300080910C0590910D050E94FB16883C910526
:1038400060F510E21D0FCD17B9F080E28C0F8830C3
:1038500040F4C77081E001C0880FCA95EAF70E9462
:103860001E11183048F481E09D2F977001C0880F19
:103870009A95EAF70E942511802F0E94841B802FC1
:103880000E94511B183058F6D77081E001C0880F94
:10389000DA95EAF70E941E11C2CFC77081E001C01D
:1038A000880FCA95EAF7F6CF8091AC04882319F007
:1038B0000E940A1708950E94510CCB01089560914F
:1038C00091046695669570E04BE050E081E491E0EC
:1038D0000E941331892B19F481E08093DC020E944D
:1038E000541C9093D6028093D5028091DD028460AF
:1038F0008093DD0208959091910490FF3AC09370F7
:10390000811138C09460909391048091DD028160B0
:103910008093DD02662391F020919104309192040E
:103920004091930450919404609195047091960491
:1039300080919704909198040E940B1360919104D8
:103940006695669570E04BE050E081E491E00E945E
:103950001331892BB9F00E94C40881E08093D8020A
:1039600020E04091940460919304809192040E941D
:10397000311308958B3210F0986AC5CF880F880FE5
:10398000982BC1CF0E945F1CE8CF8091910486954F
:103990008695815009F48AE261E00E947B1C0895BB
:1039A00080919104869586958F5F8B3208F081E037
:1039B00061E00E947B1C08959091910490FF09C0E2
:1039C00096959695981728F0961718F40E94D01C93
:1039D000089561E00E947B1C0895B0E0A0E0E3EF51
:1039E000FCE10C9406308C01FC018481882309F4ED
:1039F00067C021E0408151816281738195810E947D
:103A0000E10FEC01F8019581992309F47DC48181CE
:103A10008093AF0280818093AE0280E2809339016F
:103A2000D093AD02C093AC029E01305221153042BA
:103A300038F4F8018681807F09F45EC0FE010AC077
:103A40009E01305421153041C8F4F8018681807FF1
:103A5000FE0109F0FF27ED33F10528F4E455FF4F8F
:103A6000E491E0933901FE01E851FC47E730F105AC
:103A700008F042C0E350FE4C0C9463309E013A952E
:103A800021153F41D8F29E01205A3245203231059E
:103A900050F3FE01E0CF26E241EE61EEC8010E9444
:103AA000F41B80911902877059F0F80185818823F1
:103AB00039F08091B50482FF03C082E00E94920F2A
:103AC000CDB7DEB7EAE00C94223027E245EE65EE92
:103AD000E5CF26E241EE60EEE1CF27E245EE64EE6F
:103AE000DDCF26E241EE62EED9CF27E245EE66EE6B
:103AF000D5CF28E241E0EBCF10920E059E01305762
:103B00002332310508F01AC484E090E00E94443169
:103B10009093B5048093B404FE01E150F047E23283
:103B2000F10520F4EC5FFD4C0C9463308091B404FB
:103B300081608093B40495C08091B50488608093BF
:103B4000B5048FC08091B4048260F3CF8091B40437
:103B50008460EFCF8091B4048860EBCF8091B5048E
:103B60008160EDCF8091B5048260E9CF8091B4048B
:103B70008061DFCF8091B4048062DBCF8091B40498
:103B80008064D7CF0E943D178091B4048068D1CF64
:103B90008091B4048C60CDCF8091B5048360CFCF89
:103BA0008091B4048E7FC5CF8091B504877FC7CF45
:103BB0008091B4048D7FBDCF8091B4048B7FB9CF49
:103BC0008091B404877FB5CF8091B5048E7FB7CF45
:103BD0008091B5048D7FB3CF8091B4048F7EA9CF3F
:103BE0008091B4048F7DA5CF8091B4048F7BA1CF49
:103BF0000E943D178091B4048F779BCF8091B404CD
:103C0000837F97CF8091B5048C7F99CF8091B40446
:103C100082FB992790F921E0922790FB82F990FB93
:103C200083F987CF8091B504982F909591708E7FFE
:103C3000892B90FB81F983CF9091B404892F8F7BDE
:103C400096FF806476CF0E943D179091B404892F2F
:103C500097FB87F980586DCF61E08EE090E00E947D
:103C60005A316091B4047091B50484E090E00E94F0
:103C700078310E943D1715CF60E0EFCF9091B404EA
:103C8000892F8F7E94FF806154CF9091B404892F47
:103C90008E7F90FF81604DCF9091B504892F877FF3
:103CA00093FF88604CCF85E359C38091F80181115F
:103CB00004C089E20E94B10753C385E3FBCF992377
:103CC00009F42EC3C3303CE7D30709F4F7C008F06A
:103CD000DAC0C1159CE7D90709F4E3C0C130DC475D
:103CE00009F4F2C0F8018581C081D181882309F4EB
:103CF000F9C0CE010E94D10EF82E682FCE010E948D
:103D0000450FBE018F2D0E945C0D0E947B0DD82FA8
:103D1000C92FA82EF801C580B680B2943FE0B32227
:103D200080911902877009F1EC2CCC20F9F0892FD1
:103D3000807F803469F080E28D0F8830B0F0892F69
:103D4000807E803229F4F1E0FD1778F4BB2069F021
:103D50008091B50482FF09C082E00E94920F809199
:103D600019028770EE24E3948111E12CDC2ED294A9
:103D70002FE0D2222BE02D1508F419C1ED2DF0E033
:103D8000EA5DFD4C0C9463308091910480FF1EC06D
:103D9000282F2E7F20939104309192044091930418
:103DA00050919404609195047091960480919704C9
:103DB000909198040E940B130E94C4088091DD0228
:103DC00081608093DD020E94CB086BCE816080937E
:103DD000910461E0869586950E947B1C62CE45EC3D
:103DE0005CE160ED7CE10E94BD085BCE40ED5CE1F2
:103DF00065EC7CE1F8CF45EF53E16FEF73E1F3CF72
:103E00004FEF53E165EF73E1EECF4BED53E168EE19
:103E100073E1E9CF48EE53E16BED73E1E4CF41ECA0
:103E200053E16EEC73E1DFCF4EEC53E161EC73E1F3
:103E3000DACF49E054E163E274E1D5CF43E254E1E3
:103E400069E074E1D0CF61E081E0C6CF65E082E057
:103E50000E94DC1C26CE68E086E0FACF6EE089E0A6
:103E6000F7CF64E18FE0F4CF67E185E1F1CF61E066
:103E700088E1B2CF62E289E1EBCF61E083E2ACCFCF
:103E80006AE285E2E5CFCB35FCE7DF0749F1CC35C7
:103E90002CE7D207D9F0CA35DC4709F023CF81E0FF
:103EA0001CC00E943D178FEF94E3ECE081509040DE
:103EB000E040E1F700C000000E9494076FEF7FEF41
:103EC00090E080E00E9478310E94631A8091B504EE
:103ED00082FB882780F991E089270E943D1402CF58
:103EE00080E0FBCFCE010E94120FF82E0ACF3C2FAC
:103EF0003F70F32EC07F19F0F29490EFF922CC209E
:103F0000B9F0FF2069F080E28D0F883010F0A11029
:103F100009C080914402F82AF09244020E94CC1019
:103F20008D2F43C080911B02F82AF0921B02F6CF1E
:103F30008D2F0E94511BFF20D1F1D05ED83010F0A0
:103F4000A11004C08F2D0E94990E06C0F09480919C
:103F50001B02F822F0921B020E94CC1028C08C2F6A
:103F60008F70F82EC07FC03219F0F29480EFF822E3
:103F7000AA2059F091E0A91609F478C0CC2009F4E0
:103F800084C0BB2009F446C0CBCF8091B50482FD2C
:103F90003DC0CC20A9F1FF2039F080914402F82ADD
:103FA000F09244020E94CC1080E00E94841BED2D10
:103FB000E850FF0B349710F40E945A08EE20A9F045
:103FC0008091190280FD11C0F801158286958695B1
:103FD00086950E94A90FC8010E94ED1C80911902CC
:103FE0008695869586950E94800F20E0F801408195
:103FF000518162817381848195810E94E10F60CD3E
:1040000080E00E94511BFF2091F29CCFCC20A1F0B8
:10401000B11004C08F2D0E942511C9CFE1E0BE125E
:10402000C6CF80911A029F2D9823F91609F4BFCFAD
:10403000F82AF0921A02BBCFB110B9CF8F2D0E948F
:104040001E1190911A028F2D892329F08F2D8095B2
:10405000892380931A028091F9019F2D982309F4F6
:10406000A6CFF094F822F092F901A1CFCC2029F04C
:10407000F5E0FB1508F49BCFCDCF24E02B1508F419
:1040800096CF8F2D0E941E1192CFBB20D1F339E322
:10409000A31209C08FEF97EEE3E081509040E0401B
:1040A000E1F700C000008D2F0E94511B80CF8C2FA4
:1040B00086958695837069F0813009F078CF8D2FD1
:1040C0009C2F9370C11002C080E090E00E94100805
:1040D0006ECF8D2F9C2F9370C11002C080E090E0B6
:1040E0000E94350864CF6C2D8D2F0E94791A5FCF06
:1040F0008C2F837009F03FC0C11059CF4D2F4295CE
:1041000046954770440F440F2D2F2F7030E0042E3A
:1041100002C0220F331F0A94E2F790E080E0D4FF40
:1041200009C08FE090E002C0880F991F4A95E2F71E
:1041300080959095C695C695C370C23099F078F475
:1041400040918C0250918D02C13039F0822B932B1B
:10415000842395230E94B90F2ACF242B352B822B41
:10416000932BF8CF822B932B20918C0230918D02D0
:1041700082279327EFCF8695CC2011F08C2F81706A
:10418000882309F414CF4D2F429546954770440F6C
:10419000440F2D2F2F7030E0042E02C0220F331F4A
:1041A0000A94E2F790E080E0D4FF09C08FE090E04D
:1041B00002C0880F991F4A95E2F780959095C695A1
:1041C000C695C370C23099F078F44091A302509123
:1041D000A402C13039F0822B932B842395230E94B3
:1041E0007B0FE5CE242B352B822B932BF8CF822B04
:1041F000932B2091A3023091A40282279327EFCF23
:10420000CF70CC2029F08C2F0E94A90F8D2F03CFC7
:104210008D2F0E941E118C2F0E94800FC8CE8D2FD3
:10422000F2EFAF1699F1FA1570F020EFA216D1F067
:1042300031EFA31691F0CC2009F456C0B11070CE26
:104240008C2F8F7127C093EFA91639F1E4EFAE12CE
:10425000F2CF9091B50492FD2EC08C2F8F71CC209F
:10426000D9F218C0CC2069F0F4E0FB1508F49FCE19
:10427000CF7181E090E002C0880F991FCA95E2F7E4
:10428000B8CF25E02B1508F492CEF2CF8C2F8F718A
:10429000C110C2CF0E94A90F8ACE90E080E0CC204E
:1042A00009F49DCFCF7181E090E002C0880F991F83
:1042B000CA95E2F794CFCC2061F08C2F8F7192FFDA
:1042C000E9CF98E0899F900111242360209319027F
:1042D000E1CF81E00E94920FE1E0EB1508F067CE9C
:1042E00082E00E94920F63CEBB2059F0893309F01F
:1042F000DACEFFEF27EE33E0F15020403040E1F717
:10430000D0CE8C2F8F7188CFFE01E851FC47E7306B
:10431000F10508F4AFCBC6312CE7D20709F4C5CCC0
:10432000809144028272FE01E052F847E531F105C6
:1043300008F0D8CCEE5CFD4C0C946330C631FCE741
:10434000DF0709F0BCCC809144028A7A91E009F43D
:1043500090E09093F8018111A6CC89E20E94DC07DD
:104360000E94CC109ECBCF93DF9380911802807F68
:1043700009F04DC080911702882309F448C0E091EC
:104380000B055091D204C0911302D091120260919A
:1043900014027091150247E05E17C9F18E2F90E06C
:1043A000E49FF0011124ED52FB4F2481222391F16F
:1043B000489FF001499FF00D1124DF01AD52BB4F22
:1043C00011962C9111972C1325C02C912D1322C0DE
:1043D00015962C91159721111DC012962D913C9187
:1043E000261B370B283C3105A8F4809118028F70EA
:1043F000806180931802E752FB4F80818F7080614B
:10440000808382E192E00E94ED1C0E94C70EDF9142
:10441000CF910895FC013196E770BECFA4E1B0E0E2
:10442000E4E1F2E20C9404308C0186E0F801DE0154
:104430001F9601900D928A95E1F7F8018481E5803D
:1044400092E1A92E92E0B92E90911602911128C006
:10445000882319F1EE20F1F0C8010E94BE0FF82E5A
:104460008823C1F087E0F801D50101900D928A956B
:10447000E1F780911602813031F48091120290911F
:1044800013020E94050F0E94B3218F2D6496ECE069
:104490000C942030C8010E94ED1CFF24F394F5CF4A
:1044A000D080C18082809380F09017022091140206
:1044B00030911502A401421B530BFF2009F4D9C00F
:1044C000483C510508F092C08823F9F290911302FC
:1044D00080911802282F207F09F056C0C91214C0FD
:1044E00090911202D91210C0E11048C08F70806103
:1044F0008093180282E192E00E94ED1C80911802E4
:10450000F8018683F12CC1CFE11038C06C2D8D2DC0
:104510000E9401066C2D8D2D0E940106E82E81114E
:10452000F1CFDF86C88A8F8598890E94050F292FD1
:1045300022952F70243058F49F70223088F09923F0
:1045400099F0F8019681907F79F4FE2C9ECF2A5F36
:104550002F70223068F0C8010E94ED1CEF2CF5CFBF
:10456000992311F0882389F3805E883070F3F3CFAC
:10457000803F58F3815F833070F7E7CF8091180256
:10458000816080931802BECFC91207C090911202B9
:10459000D91203C0EE2009F48DC0C8010E94BE0FDD
:1045A000882309F477CFEE2009F474CF80911802A4
:1045B000803288F0209112023091130239872887C7
:1045C0009B868A86909116029C871D868E87CE01D7
:1045D00008960E94ED1C87E0F801A2E1B2E001908C
:1045E0000D928A95E1F70E94B32157CF909118025E
:1045F000292F207F51F482E192E00E94ED1C87E098
:10460000F50111928A95E9F77DCF882309F43DCF12
:10461000809113028C1110C080911202D8120CC02C
:10462000E1100AC09683C8010E94ED1C87E0F501E5
:1046300011928A95E9F729CFC8010E94BE0F8823FD
:1046400009F428CFEE2009F425CF8091180280329A
:1046500010F220911202309113023A8329839C8236
:104660008B82909116029D831E828F83CE010196CC
:10467000B0CF483C5105D0F6882309F40ECFFE2C6C
:10468000EE2009F407CF809113028C1120C0809195
:104690001202D8121CC08091180280FD0FC0982F02
:1046A000907F61F08683903F31F0982F907F905FEC
:1046B0008F70892B8683C8010E94ED1C87E0F8016A
:1046C000A2E1B2E001900D928A95E1F7DECEC80139
:1046D0000E94BE0F81117FCF80911802816080936C
:1046E0001802C8010E94ED1CD0CEABE1B0E0EBE7B0
:1046F000F3E20C940C304E8B5F8B688F798F8A8F2E
:104700009B8F192F911110921B021D8A86E0FE01CA
:104710007696DE011F9601900D928A95E1F70A8D3B
:10472000002341F021E04F85588969897A89C801C1
:104730000E94E10F0B8B1C8B87E0FE013F96DE0190
:10474000189601900D928A95E1F7CE0108960E9485
:104750000E2281110CC087E0FE013896DE01119611
:1047600001900D928A95E1F78C8581110BC017E0BD
:1047700080910B059091D204891331C06B96E4E0CF
:104780000C9428302091D20430E0C9010196877042
:10479000992740910B054817190699F097E0929FC9
:1047A000D001939FB00D1124AD52BB4FFE01319645
:1047B00001900D929A95E1F78093D2040E94C70E62
:1047C000D6CF0E943D171092D20410920B0587E0BD
:1047D000E2E1F2E0DF011D928A95E9F7C8CF819FFF
:1047E000C00111248D529B4F0E940E22882331F26A
:1047F00080910B0590E001968770992780930B05B7
:10480000B7CFA3E1B0E0E7E0F4E20C9403308E010F
:10481000045F1F4F88E0D8011D928A95E9F780E96F
:10482000C82E81E0D82EF12CE12CAA24A394B12C1F
:104830002AE9822E21E0922EF60181916F018F3FAD
:1048400009F442C0F894E82FE295EF70F0E021A15E
:104850008F70A50102C0440F551F8A95E2F7CA0167
:10486000922F982B91A392A18095892382A378946B
:1048700000C0E4E9F1E0712C31E021912F3F09F40F
:10488000A3C0A22FA295AF70B0E090968C9190E05B
:104890002F7002C0959587952A95E2F780FD94C008
:1048A000832F782A330F8E169F0639F7F60131973A
:1048B00080818F3F11F00E943A0C50EA5A95F1F72F
:1048C000F801EE0DFF1D70828FEFE81AF80A94E0F0
:1048D000E916F10409F0B0CF48E050E0B80182E8F1
:1048E00092E00E942031009741F028E0F801A2E810
:1048F000B2E001900D922A95E1F700918B0210E051
:1049000001571D4F892B09F461C081E08093490252
:104910000E940A179093480280934702F12CE0907E
:10492000AC04EE2009F4ACC019821A821B821C82EE
:1049300080917D028A3008F06DC045E555E1BE01E9
:104940006F5F7F4FC8010E94BE11882309F487C0A2
:1049500043EE54E1BE016F5F7F4FC8010E94BE115C
:10496000882309F47CC04FEF54E1BE016F5F7F4F95
:10497000C8010E94BE11882309F471C045EB54E1BF
:10498000BE016F5F7F4FC8010E94BE11882309F4EA
:1049900066C010927D0280918A0290E044E050E06F
:1049A000BE016F5F7F4F81579D4F0E94203121E0F4
:1049B00020935002892B09F044C0E12C8E2D8F29C1
:1049C0006396EDE00C941F3080E06BCFF0904902CD
:1049D000FF2009F4A3CF80914702909148020E94E2
:1049E000FB16059708F49ACF44E050E062E872E0C5
:1049F000C8010E942031892B59F084E0E2E8F2E0FE
:104A0000D80101900D928A95E1F71092490287CF63
:104A1000F12CFBCF80914A0290914B020E94FB1631
:104A2000843F914008F089CF80915002882329F279
:104A300084E0FE013196DF011D928A95E9F710921C
:104A40005002E0918A02F0E0E157FD4F89819A819E
:104A5000AB81BC8180839183A283B383AFCF8091EC
:104A60007D028F3F31F08F5F80937D028A3008F4A2
:104A700092CF0E940A1790934B0280934A02D4CFA0
:104A8000C0908A02D12CF601E157FD4F6F0184E0FE
:104A9000F801AEE5B2E001900D928A95E1F78EE55E
:104AA00092E00E94200680935D0284E0E2E6F2E05C
:104AB000D60101900D928A95E1F780906602909060
:104AC0006702A0906802B090690280914C029091B8
:104AD0004D02A0914E02B0914F0288169906AA0687
:104AE000BB06B1F080924C0290924D02A0924E0211
:104AF000B0924F020E94A507861A970AA80AB90A1F
:104B000080927E0290927F02A0928002B0928102F7
:104B10008BE0EAE6F2E0DE01119601900D928A95B3
:104B2000E1F780916A0286958695D0906B02C090DD
:104B30006C02B0906D020091730210917402109299
:104B40007402112309F43ACF10FF0BC02981909110
:104B5000910420FF1AC091609093910460E00E943C
:104B60007B1C11FF06C020E04B2D6C2D8D2D0E946B
:104B7000311312FF04C00023A9F00E945F1C13FF31
:104B80001DCF81E08093D80219CF9E7F909391042E
:104B90000E94C4088091DD0281608093DD020E9442
:104BA000CB08DFCF0E94C408EACFA6E0B0E0EBED6F
:104BB000F5E20C940C300E940A178C01809145029A
:104BC000909146028017910781F019821A820E9403
:104BD0000A17682F49815A81792F80E090E00E945E
:104BE000752310934602009345022696E4E00C9448
:104BF00028301F921FB61F9211248F939F93AF935B
:104C0000BF938091B604811113C08091B704909135
:104C1000B804A091B904B091BA044196A11DB11D88
:104C20008093B7049093B804A093B904B093BA04E6
:104C3000BF91AF919F918F911F901FBE1F901895AC
:104C4000CDB7DEB762970FB6F894DEBF0FBECDBF0B
:104C500085B7806885BF85B7806885BF84B7877F43
:104C600084BF0FB6F894A895809160008861809306
:104C70006000109260000FBE80E890E00FB6F894DC
:104C800080936100909361000FBE88E39CE0909355
:104C9000CF018093CE010E9437060E94D8068091F2
:104CA000E20084608093E20078948091C8048823B5
:104CB000A1F01091E9001F709091EC00892F817094
:104CC00090FD80E8182B1092E9008091E80083FDA8
:104CD0000E946E171F701093E90082E084BD93E07C
:104CE00095BD9AEF97BD80936E0010927E02109250
:104CF0007F0210928002109281028091D800806120
:104D00008093D8002AE12A95F1F700C08091D9005C
:104D1000182F117080FD04C00E9437061092C8043D
:104D20001093AC041093AD0410932C01112309F4DB
:104D3000D2C010924F018BE1809350010E94882EC7
:104D400080912C0180912C0194E0811190E090934E
:104D50008B0284E0891B80938A0284E90E943A0CCA
:104D600086E60E943A0C87E90E943A0C86EC0E9483
:104D70003A0C04E911E0D8018D918D018F3F11F0BB
:104D80000E943A0CB1E00A391B07A9F788E0EFE866
:104D9000F2E0DF01282F1D922A95E9F7E2E8F2E020
:104DA000DF011D928A95E9F790E080E00E9444318E
:104DB000853E9E4F09F461C065EE7EEF90E080E095
:104DC0000E94783160E082E090E00E945A3181E0F8
:104DD00090E090938D0280938C0261E083E090E0FC
:104DE0000E945A3160E074E184E090E00E947831E2
:104DF00060E086E090E00E945A3160E087E090E059
:104E00000E945A3140E050E0BA0188E090E00E94F0
:104E10006C3160E083E290E00E945A3160E08CE007
:104E200090E00E945A3160E08DE090E00E945A319B
:104E300019821A821B821C821D821E821F82188682
:104E400048E050E067E170E0CE0101960E944A31EF
:104E500040E050E0BA018FE190E00E946C3140E008
:104E600050E0BA018FE090E00E946C3140E050E0E9
:104E7000BA0183E190E00E946C3182E090E00E94F0
:104E800036318093970284E090E00E944431909301
:104E9000B5048093B4040E940124EFEFF6E721E00B
:104EA000E150F0402040E1F700C000000E940124E2
:104EB0008091AD04E4E08111E0E0F0E0E157FD4FC6
:104EC000808181FF0EC06FEF7FEF90E080E00E9455
:104ED00078310E9494078BE180934F0180935001B9
:104EE0002FCF83E090E00E94363190E00E94B90F0E
:104EF0008091AC0481113DC182E08093D00280E8B2
:104F000080930F050E94262D6BE070E08FE792E002
:104F10000E94F1118823E9F18091D00265E070E0F0
:104F200081FD29C18AE792E00E94F111882389F16D
:104F30006DE070E088E692E00E94F111882349F16B
:104F40000E94A507605A75418F4F9F4F6093990447
:104F500070939A0480939B0490939C04E2E1F5E0A3
:104F600080E092E0DF019C011D9221503040E1F78A
:104F7000F0931907E09318078FEF9FEF90931105B7
:104F80008093100581E080939E0480939D0410928D
:104F9000D10280918E02811186C088E090E00E944B
:104FA0003E314B015C0183E290E00E943631282FB4
:104FB00030E040E050E060E070E080E090E000E24F
:104FC0000E947830282939294A295B2920939104A5
:104FD0003093920440939304509394046093950407
:104FE0007093960480939704909398043091DD0217
:104FF00033603093DD022C7F09F043C025E020931D
:105000009104109292042FEF2093930428E72093A9
:1050100094041092950425E030E04FEF58E760E0EB
:105020000E940B1388E090E00E943E316B017C01EE
:1050300083E290E00E943631282F30E040E050E0DB
:1050400060E070E080E090E00E947830B22FA32F03
:10505000F42FE52F5B0197018601BC29A12BFE29C6
:10506000E32BB0939104A0939204F0939304E09304
:10507000940460939504B09296048093970490935F
:1050800098040E9408090E94C4080E94BB088091ED
:10509000910480FF05C060E0869586950E947B1C88
:1050A00081E080938E028091AC04811102C00E9445
:1050B0008B2E8DE291E09093B1048093B004DD24B7
:1050C000D394AAE04A2E512C612C712C8091C804F3
:1050D00010E4853009F486C00E94012408E912E03A
:1050E000FFE8EF2EF2E0FF2ED701F80191918D91AC
:1050F00022E0E03AF20709F47FC09817B9F3309044
:10510000AC04C12CD701BD907D01F80181908F01C5
:105110008B1431F18B24A12C99249394882D89210F
:10512000B9F03320A9F0A986CA860E940A179C8785
:105130008B87F1E0FD8791E08B2D892109F490E0C8
:105140009E8749855A856B857C858D850E94752350
:10515000A394990C26E0A212E1CFF8013197B08216
:10516000C39438E0C312CECF0E94510CCC24C39418
:1051700048C080E0C2CE85E792E0D6CE8091C804D8
:10518000843029F10E94FE111092B60488E190E06B
:105190000FB6F894A895809360000FBE109360003E
:1051A00083B7817F846083BF83B7816083BF789436
:1051B000889583B78E7F83BF0FB6F894A8958091AA
:1051C0006000886180936000109260000FBE0E94B2
:1051D0000124EFE8F2E081918111BAC392E0E7394E
:1051E000F907C9F78091C804853009F4C7CF0E9438
:1051F0003D170E945A0870CF981381CF0E94D52581
:10520000C12C8091DC02882309F464C08091DB0208
:10521000E0919104E695E695E81BE093D702823091
:1052200009F0AFC0F0E0E556FD4FE4910E2F10E01D
:10523000E4E2EE2EECE0FE2E8091D802882361F0AD
:105240001092D8020E94541C9093D6028093D502EB
:105250001092DA021092D9020E94541CE091D502F9
:10526000F091D6029C012E1B3F0B2F3F3F4790F53C
:105270002091A2022223B1F01092A2022091A0025A
:105280003091A102821B930B8F3F9F4758F4205D02
:105290003A483093A1022093A0028091DD028860F9
:1052A0008093DD02A090D902B090DA02E00FF11FE6
:1052B000F093D602E093D50285ED92E0F7010995CF
:1052C0008091D9029091DA02892B21F4AB2811F058
:1052D000D092A20280919E04882309F421C180917A
:1052E000D2029091D3020E94FB16C29708F4F8C034
:1052F0000E940A179093D3028093D20282E195E034
:1053000090931907809318078091AC04882309F4BF
:105310002FC280EC92E00E9486102091A30230916F
:10532000A402832F9927009709F497C09C0188E075
:10533000A901F4E056954795FA95E1F74115510515
:1053400011F08C5F9A01A90156954795569547959E
:105350004115510511F08E5F9A0136952795232B43
:1053600009F08F5F813009F4BDC1882309F477C04B
:10537000823009F4BAC1833009F4BAC18FE992E0EE
:1053800070C0863059F4F0E0E856FD4FE4910E2FDE
:1053900010E074E1E72E7CE0F72E4ECF893061F407
:1053A000E695F0E0EB56FD4FE4910E2F10E06FEB29
:1053B000E62E6BE0F62E40CF8F3061F4E695F0E0FC
:1053C000EE56FD4FE4910E2F10E054E3E52E5BE026
:1053D000F52E32CF853159F4F0E0E157FD4FE491DD
:1053E0000E2F10E04FEAE42E4AE0F42E25CF08E21B
:1053F00010E09DE2E92E9AE0F92E883109F41CCFE5
:10540000833249F4EDE8F2E00591149134EFE32E94
:1054100039E0F32E11CF8432C9F000ED17E0B3EC80
:10542000EB2EB8E0FB2E853209F006CF8E2F63E01D
:105430000E943530E92FF0E0E657FD4FE4910E2F42
:1054400010E021E4E22E22E1F22EF6CE04EF11E08C
:1054500087EBE82E89E0F82EEFCE80E069CF88EB6D
:1054600092E00E94C6108091AF02805D0E940610FB
:105470008EEC92E00E9486108091AE02805D0E94C8
:1054800006108AEC92E00E9486108090AC02909008
:10549000AD0220913701309138018216930609F050
:1054A0002AC12091AB02203209F025C1E5EAF2E0E1
:1054B0008F0181918032E1F3F80101900020E9F73A
:1054C0009F012150310979010E151F0508F44AC1C9
:1054D00088EC92E00E948610809139010E940610AB
:1054E0008091100590911105892B09F046C180919A
:1054F0009D048823A9F00E94A507009199041091AA
:105500009A0420919B0430919C04601B710B820BC8
:10551000930B6F3F7F4F8F4F9F4710F40E94FE11F8
:10552000C1100E94191286E0E6EAF4E0DE0111964D
:1055300001900D928A95E1F7C090A704F090A8041D
:105540001091A904E090AA040091AB041092A80461
:105550001092A9041092AA041092AB04812F8F29F3
:1055600009F445C08091A4049091A5040E94FB1603
:105570009C0190919F04992309F411C225313105B2
:10558000B0F19F3F19F09F5F90939F04FF2059F067
:105590000E948D089FEF1F140CF491E0899F802DCD
:1055A00011248093A804112359F00E948D0891E0E2
:1055B00011160CF09FEF899F802D11248093A90470
:1055C0008091A804882399F0B090A904BB2079F0B9
:1055D0000E94AD08882309F4AFC18093A8048B2DE5
:1055E0000E94AD08882309F4AAC18093A904802FE2
:1055F0008E2909F445C08091A2049091A3040E94D1
:10560000FB169C019091A004992309F4C3C1213594
:105610003105B0F19F3F19F09F5F9093A004EE20F9
:1056200059F00E946B089FEF1E140CF491E0899FC3
:10563000802D11248093AA04002359F00E946B0846
:1056400091E010160CF09FEF899F802D112480931C
:10565000AB048091AA04882399F0E090AB04EE207B
:1056600079F00E94AD08882309F46CC18093AA04E4
:105670008E2D0E94AD08882309F467C18093AB0486
:105680008091A7048C1117C08091A804882311F081
:105690008F1111C02091A904222311F012130BC005
:1056A0009091AB04992311F0901305C03091AA0496
:1056B000332309F46AC10E94161786E0FE01319671
:1056C000A6EAB4E001900D928A95E1F70E945A088B
:1056D0009091D402891709F4F9CC8093D4020E94E6
:1056E000A507F4CC82EB92E0BCCE8CEA92E0B9CE76
:1056F00085EA92E0B6CE909238018092370120E29E
:105700002093AB02B12CA12C1092AA0255EA252EAF
:1057100052E0352E60EAE62E62E0F62E8101C501E8
:10572000B401A30192010E94C031605D603319F49D
:105730002016310631F081149104A104B10409F45A
:1057400060E2D80114966C93C501B401A3019201E3
:105750000E94C03149015A0101501109E016F106B9
:10576000F1F6A4CED8018D918D010E940610ACCE29
:1057700080ED92E00E948610B3CE80919E04882333
:1057800009F4B5CE8091D1028111B1CE0E941912D7
:1057900020911005309111052115310509F4A7CE8E
:1057A00080E041E050E0282E312C5A01082E02C042
:1057B000AA0CBB1C0A94E2F7B50162237323672B82
:1057C00011F48F5FF0CF9091D00290FF9BC0880FB3
:1057D000880F880F80933C0110923F01895F80936E
:1057E0003D0183E08093400124E630E047E050E053
:1057F0006AE371E088E70E945A2D892B09F077CE81
:1058000095E0220C331C9A95E1F78091D00280FF3D
:105810008BC0E0EBF2E080E2DF011D928A95E9F7B0
:10582000EEE9F1E0FA8BE98B8AE9882E81E0982E87
:1058300007E0A989BA894D91BA8BA98BF4018191AE
:105840004F01820D932D911D9C012E5E3A4F388B96
:105850002F87E42FF0E0E055FD4F30E020E0F02E00
:10586000F21A11E0022E01C0110F0A94EAF76F85B7
:10587000788990E0DB018D91BD0181234F2D491B7B
:105880004770E42E042E000C550BB82F01C0BB0F3F
:10589000EA94EAF7EB2E5195419551094770552747
:1058A00001C086954A95EAF7E82A8081E82AE082D5
:1058B0009F5F9830F9F62F5F3F4F319628303105C2
:1058C00071F6E989FA89E25AF14009F0B2CF04E6AB
:1058D00010E020E230E040EB52E060E488E70E9414
:1058E000E42D892B09F003CEC50180959095209178
:1058F0001005309111058223932390931105809315
:105900001005F5CD8295880F807680933C0191013A
:10591000369527953695279520933F01815E809394
:105920003D012093400160CFA1014E5E5A4F04E635
:1059300010E020E230E0D1CFD092A80450CED09237
:10594000A90455CED092AA0493CED092AB0498CE9F
:105950008091C704882309F445CCA0E1A9BDB2E138
:10596000B9BD09B400FEFDCF8091D8008F7D809332
:10597000D8008091E00082608093E0008091E00098
:1059800081FDFCCF0E943D172DCC822B892B09F481
:1059900094CE91CE2B30310508F03ECE71CE2B3017
:1059A000310508F0F0CD23CEEF92FF920F931F93B5
:1059B000CF93DF93182FEB011092BC0084EA809301
:1059C000BC000E940A177C018091BC0087FF27C0A1
:1059D0008091B900887F883029F08091B900887F54
:1059E000803189F51093BB0084E88093BC000E944D
:1059F0000A178C018091BC0087FF1EC02091B9005E
:105A0000287F90E080E0283191F081E090E0203420
:105A100011F490E080E091958195910908C0C7014B
:105A20000E94FB16C817D90778F68EEF9FEFCDB707
:105A3000DEB7E6E00C942630C8010E94FB16C817BA
:105A4000D907C0F6F2CF8FEF9FEFF1CF1092B900D8
:105A50008CE08093B80008950F931F93CF93DF934A
:105A6000EB018093BB0084E88093BC000E940A177E
:105A70008C018091BC0087FF11C02091B900287F64
:105A800081E090E0283211F490E080E091958195DA
:105A90009109DF91CF911F910F910895CF3FDC07BE
:105AA00041F3C8010E94FB16C817D90710F78EEF03
:105AB0009FEFEFCFB0E0A0E0E0E6FDE20C94033012
:105AC000782E5B016A0189010E940A174C01C1E02E
:105AD000D0E00431110558F0C5E0D0E00F3F1007C9
